{
  "contractName": "MuseumVIPTicket",
  "abi": [
    {
      "inputs": [],
      "stateMutability": "nonpayable",
      "type": "constructor"
    },
    {
      "anonymous": false,
      "inputs": [
        {
          "indexed": true,
          "internalType": "address",
          "name": "owner",
          "type": "address"
        },
        {
          "indexed": true,
          "internalType": "address",
          "name": "approved",
          "type": "address"
        },
        {
          "indexed": true,
          "internalType": "uint256",
          "name": "tokenId",
          "type": "uint256"
        }
      ],
      "name": "Approval",
      "type": "event"
    },
    {
      "anonymous": false,
      "inputs": [
        {
          "indexed": true,
          "internalType": "address",
          "name": "owner",
          "type": "address"
        },
        {
          "indexed": true,
          "internalType": "address",
          "name": "operator",
          "type": "address"
        },
        {
          "indexed": false,
          "internalType": "bool",
          "name": "approved",
          "type": "bool"
        }
      ],
      "name": "ApprovalForAll",
      "type": "event"
    },
    {
      "anonymous": false,
      "inputs": [
        {
          "indexed": true,
          "internalType": "address",
          "name": "previousOwner",
          "type": "address"
        },
        {
          "indexed": true,
          "internalType": "address",
          "name": "newOwner",
          "type": "address"
        }
      ],
      "name": "OwnershipTransferred",
      "type": "event"
    },
    {
      "anonymous": false,
      "inputs": [
        {
          "indexed": true,
          "internalType": "address",
          "name": "from",
          "type": "address"
        },
        {
          "indexed": true,
          "internalType": "address",
          "name": "to",
          "type": "address"
        },
        {
          "indexed": true,
          "internalType": "uint256",
          "name": "tokenId",
          "type": "uint256"
        }
      ],
      "name": "Transfer",
      "type": "event"
    },
    {
      "inputs": [
        {
          "internalType": "address",
          "name": "to",
          "type": "address"
        },
        {
          "internalType": "uint256",
          "name": "tokenId",
          "type": "uint256"
        }
      ],
      "name": "approve",
      "outputs": [],
      "stateMutability": "nonpayable",
      "type": "function"
    },
    {
      "inputs": [
        {
          "internalType": "address",
          "name": "owner",
          "type": "address"
        }
      ],
      "name": "balanceOf",
      "outputs": [
        {
          "internalType": "uint256",
          "name": "",
          "type": "uint256"
        }
      ],
      "stateMutability": "view",
      "type": "function",
      "constant": true
    },
    {
      "inputs": [
        {
          "internalType": "uint256",
          "name": "tokenId",
          "type": "uint256"
        }
      ],
      "name": "getApproved",
      "outputs": [
        {
          "internalType": "address",
          "name": "",
          "type": "address"
        }
      ],
      "stateMutability": "view",
      "type": "function",
      "constant": true
    },
    {
      "inputs": [
        {
          "internalType": "address",
          "name": "owner",
          "type": "address"
        },
        {
          "internalType": "address",
          "name": "operator",
          "type": "address"
        }
      ],
      "name": "isApprovedForAll",
      "outputs": [
        {
          "internalType": "bool",
          "name": "",
          "type": "bool"
        }
      ],
      "stateMutability": "view",
      "type": "function",
      "constant": true
    },
    {
      "inputs": [],
      "name": "name",
      "outputs": [
        {
          "internalType": "string",
          "name": "",
          "type": "string"
        }
      ],
      "stateMutability": "view",
      "type": "function",
      "constant": true
    },
    {
      "inputs": [],
      "name": "owner",
      "outputs": [
        {
          "internalType": "address",
          "name": "",
          "type": "address"
        }
      ],
      "stateMutability": "view",
      "type": "function",
      "constant": true
    },
    {
      "inputs": [
        {
          "internalType": "uint256",
          "name": "tokenId",
          "type": "uint256"
        }
      ],
      "name": "ownerOf",
      "outputs": [
        {
          "internalType": "address",
          "name": "",
          "type": "address"
        }
      ],
      "stateMutability": "view",
      "type": "function",
      "constant": true
    },
    {
      "inputs": [],
      "name": "renounceOwnership",
      "outputs": [],
      "stateMutability": "nonpayable",
      "type": "function"
    },
    {
      "inputs": [
        {
          "internalType": "address",
          "name": "operator",
          "type": "address"
        },
        {
          "internalType": "bool",
          "name": "approved",
          "type": "bool"
        }
      ],
      "name": "setApprovalForAll",
      "outputs": [],
      "stateMutability": "nonpayable",
      "type": "function"
    },
    {
      "inputs": [
        {
          "internalType": "bytes4",
          "name": "interfaceId",
          "type": "bytes4"
        }
      ],
      "name": "supportsInterface",
      "outputs": [
        {
          "internalType": "bool",
          "name": "",
          "type": "bool"
        }
      ],
      "stateMutability": "view",
      "type": "function",
      "constant": true
    },
    {
      "inputs": [],
      "name": "symbol",
      "outputs": [
        {
          "internalType": "string",
          "name": "",
          "type": "string"
        }
      ],
      "stateMutability": "view",
      "type": "function",
      "constant": true
    },
    {
      "inputs": [],
      "name": "tokenId",
      "outputs": [
        {
          "internalType": "uint256",
          "name": "",
          "type": "uint256"
        }
      ],
      "stateMutability": "view",
      "type": "function",
      "constant": true
    },
    {
      "inputs": [
        {
          "internalType": "uint256",
          "name": "tokenId",
          "type": "uint256"
        }
      ],
      "name": "tokenURI",
      "outputs": [
        {
          "internalType": "string",
          "name": "",
          "type": "string"
        }
      ],
      "stateMutability": "view",
      "type": "function",
      "constant": true
    },
    {
      "inputs": [
        {
          "internalType": "address",
          "name": "newOwner",
          "type": "address"
        }
      ],
      "name": "transferOwnership",
      "outputs": [],
      "stateMutability": "nonpayable",
      "type": "function"
    },
    {
      "inputs": [
        {
          "internalType": "uint256",
          "name": "_feeAmount",
          "type": "uint256"
        }
      ],
      "name": "SetMintFee",
      "outputs": [],
      "stateMutability": "nonpayable",
      "type": "function"
    },
    {
      "inputs": [
        {
          "internalType": "uint256",
          "name": "_feePercentage",
          "type": "uint256"
        }
      ],
      "name": "SetRoyaltyFee",
      "outputs": [],
      "stateMutability": "nonpayable",
      "type": "function"
    },
    {
      "inputs": [],
      "name": "GetRoyaltyFee",
      "outputs": [
        {
          "internalType": "uint256",
          "name": "",
          "type": "uint256"
        }
      ],
      "stateMutability": "view",
      "type": "function",
      "constant": true
    },
    {
      "inputs": [],
      "name": "GetMintFee",
      "outputs": [
        {
          "internalType": "uint256",
          "name": "",
          "type": "uint256"
        }
      ],
      "stateMutability": "view",
      "type": "function",
      "constant": true
    },
    {
      "inputs": [],
      "name": "GetCurrentTokenId",
      "outputs": [
        {
          "internalType": "uint256",
          "name": "",
          "type": "uint256"
        }
      ],
      "stateMutability": "view",
      "type": "function",
      "constant": true
    },
    {
      "inputs": [
        {
          "internalType": "address",
          "name": "from",
          "type": "address"
        },
        {
          "internalType": "address",
          "name": "to",
          "type": "address"
        },
        {
          "internalType": "uint256",
          "name": "tokenId",
          "type": "uint256"
        }
      ],
      "name": "transferFrom",
      "outputs": [],
      "stateMutability": "nonpayable",
      "type": "function"
    },
    {
      "inputs": [
        {
          "internalType": "address",
          "name": "from",
          "type": "address"
        },
        {
          "internalType": "address",
          "name": "to",
          "type": "address"
        },
        {
          "internalType": "uint256",
          "name": "tokenId",
          "type": "uint256"
        }
      ],
      "name": "safeTransferFrom",
      "outputs": [],
      "stateMutability": "nonpayable",
      "type": "function"
    },
    {
      "inputs": [
        {
          "internalType": "address",
          "name": "from",
          "type": "address"
        },
        {
          "internalType": "address",
          "name": "to",
          "type": "address"
        },
        {
          "internalType": "uint256",
          "name": "tokenId",
          "type": "uint256"
        },
        {
          "internalType": "bytes",
          "name": "_data",
          "type": "bytes"
        }
      ],
      "name": "safeTransferFrom",
      "outputs": [],
      "stateMutability": "nonpayable",
      "type": "function"
    },
    {
      "inputs": [
        {
          "internalType": "address",
          "name": "recipient",
          "type": "address"
        },
        {
          "internalType": "string",
          "name": "tokenURI",
          "type": "string"
        }
      ],
      "name": "createNFT",
      "outputs": [
        {
          "internalType": "uint256",
          "name": "",
          "type": "uint256"
        }
      ],
      "stateMutability": "payable",
      "type": "function",
      "payable": true
    },
    {
      "inputs": [
        {
          "internalType": "string",
          "name": "tokenURI",
          "type": "string"
        }
      ],
      "name": "createNFT",
      "outputs": [
        {
          "internalType": "uint256",
          "name": "",
          "type": "uint256"
        }
      ],
      "stateMutability": "payable",
      "type": "function",
      "payable": true
    }
  ],
  "bytecode": "0x60806040523480156200001157600080fd5b506040518060400160405280600f81526020017f4d757365756d5649505469636b657400000000000000000000000000000000008152506040518060400160405280600481526020017f4372337700000000000000000000000000000000000000000000000000000000815250816000908051906020019062000096929190620001c4565b508060019080519060200190620000af929190620001c4565b505050620000d2620000c6620000f660201b60201c565b620000fe60201b60201c565b60016008819055506611c37937e080006009819055506005600a81905550620002d9565b600033905090565b6000600760009054906101000a900473ffffffffffffffffffffffffffffffffffffffff16905081600760006101000a81548173ffffffffffffffffffffffffffffffffffffffff021916908373ffffffffffffffffffffffffffffffffffffffff1602179055508173ffffffffffffffffffffffffffffffffffffffff168173ffffffffffffffffffffffffffffffffffffffff167f8be0079c531659141344cd1fd0a4f28419497f9722a3daafe3b4186f6b6457e060405160405180910390a35050565b828054620001d290620002a3565b90600052602060002090601f016020900481019282620001f6576000855562000242565b82601f106200021157805160ff191683800117855562000242565b8280016001018555821562000242579182015b828111156200024157825182559160200191906001019062000224565b5b50905062000251919062000255565b5090565b5b808211156200027057600081600090555060010162000256565b5090565b7f4e487b7100000000000000000000000000000000000000000000000000000000600052602260045260246000fd5b60006002820490506001821680620002bc57607f821691505b60208210811415620002d357620002d262000274565b5b50919050565b6139c880620002e96000396000f3fe60806040526004361061014b5760003560e01c8063715018a6116100b6578063b88d4fde1161006f578063b88d4fde14610483578063c87b56dd146104ac578063da2ed03e146104e9578063e4df88be14610519578063e985e9c514610544578063f2fde38b146105815761014b565b8063715018a6146103925780638da5cb5b146103a957806395d89b41146103d4578063a21c6604146103ff578063a22cb4651461042a578063a5614033146104535761014b565b8063276a443d11610108578063276a443d1461027257806330e754d01461029b57806342842e0e146102c45780634f783672146102ed5780636352211e1461031857806370a08231146103555761014b565b806301ffc9a71461015057806306fdde031461018d578063081812fc146101b8578063095ea7b3146101f557806317d70f7c1461021e57806323b872dd14610249575b600080fd5b34801561015c57600080fd5b506101776004803603810190610172919061241f565b6105aa565b6040516101849190612467565b60405180910390f35b34801561019957600080fd5b506101a261068c565b6040516101af919061251b565b60405180910390f35b3480156101c457600080fd5b506101df60048036038101906101da9190612573565b61071e565b6040516101ec91906125e1565b60405180910390f35b34801561020157600080fd5b5061021c60048036038101906102179190612628565b6107a3565b005b34801561022a57600080fd5b506102336108bb565b6040516102409190612677565b60405180910390f35b34801561025557600080fd5b50610270600480360381019061026b9190612692565b6108c1565b005b34801561027e57600080fd5b5061029960048036038101906102949190612573565b61096b565b005b3480156102a757600080fd5b506102c260048036038101906102bd9190612573565b6109f1565b005b3480156102d057600080fd5b506102eb60048036038101906102e69190612692565b610a77565b005b3480156102f957600080fd5b50610302610b31565b60405161030f9190612677565b60405180910390f35b34801561032457600080fd5b5061033f600480360381019061033a9190612573565b610b3b565b60405161034c91906125e1565b60405180910390f35b34801561036157600080fd5b5061037c600480360381019061037791906126e5565b610bed565b6040516103899190612677565b60405180910390f35b34801561039e57600080fd5b506103a7610ca5565b005b3480156103b557600080fd5b506103be610d2d565b6040516103cb91906125e1565b60405180910390f35b3480156103e057600080fd5b506103e9610d57565b6040516103f6919061251b565b60405180910390f35b34801561040b57600080fd5b50610414610de9565b6040516104219190612677565b60405180910390f35b34801561043657600080fd5b50610451600480360381019061044c919061273e565b610df3565b005b61046d600480360381019061046891906128b3565b610f74565b60405161047a9190612677565b60405180910390f35b34801561048f57600080fd5b506104aa60048036038101906104a591906129b0565b6110c5565b005b3480156104b857600080fd5b506104d360048036038101906104ce9190612573565b611171565b6040516104e0919061251b565b60405180910390f35b61050360048036038101906104fe9190612a33565b6112c3565b6040516105109190612677565b60405180910390f35b34801561052557600080fd5b5061052e6114a4565b60405161053b9190612677565b60405180910390f35b34801561055057600080fd5b5061056b60048036038101906105669190612a7c565b6114ae565b6040516105789190612467565b60405180910390f35b34801561058d57600080fd5b506105a860048036038101906105a391906126e5565b611542565b005b60007f80ac58cd000000000000000000000000000000000000000000000000000000007bffffffffffffffffffffffffffffffffffffffffffffffffffffffff1916827bffffffffffffffffffffffffffffffffffffffffffffffffffffffff1916148061067557507f5b5e139f000000000000000000000000000000000000000000000000000000007bffffffffffffffffffffffffffffffffffffffffffffffffffffffff1916827bffffffffffffffffffffffffffffffffffffffffffffffffffffffff1916145b8061068557506106848261163a565b5b9050919050565b60606000805461069b90612aeb565b80601f01602080910402602001604051908101604052809291908181526020018280546106c790612aeb565b80156107145780601f106106e957610100808354040283529160200191610714565b820191906000526020600020905b8154815290600101906020018083116106f757829003601f168201915b5050505050905090565b6000610729826116a4565b610768576040517f08c379a000000000000000000000000000000000000000000000000000000000815260040161075f90612b8f565b60405180910390fd5b6004600083815260200190815260200160002060009054906101000a900473ffffffffffffffffffffffffffffffffffffffff169050919050565b60006107ae82610b3b565b90508073ffffffffffffffffffffffffffffffffffffffff168373ffffffffffffffffffffffffffffffffffffffff16141561081f576040517f08c379a000000000000000000000000000000000000000000000000000000000815260040161081690612c21565b60405180910390fd5b8073ffffffffffffffffffffffffffffffffffffffff1661083e611710565b73ffffffffffffffffffffffffffffffffffffffff16148061086d575061086c81610867611710565b6114ae565b5b6108ac576040517f08c379a00000000000000000000000000000000000000000000000000000000081526004016108a390612cb3565b60405180910390fd5b6108b68383611718565b505050565b60085481565b6108d26108cc611710565b826117d1565b610911576040517f08c379a000000000000000000000000000000000000000000000000000000000815260040161090890612d45565b60405180910390fd5b610919610d2d565b73ffffffffffffffffffffffffffffffffffffffff16610937611710565b73ffffffffffffffffffffffffffffffffffffffff161461095b5761095a6118af565b5b610966838383611918565b505050565b610973611710565b73ffffffffffffffffffffffffffffffffffffffff16610991610d2d565b73ffffffffffffffffffffffffffffffffffffffff16146109e7576040517f08c379a00000000000000000000000000000000000000000000000000000000081526004016109de90612db1565b60405180910390fd5b8060098190555050565b6109f9611710565b73ffffffffffffffffffffffffffffffffffffffff16610a17610d2d565b73ffffffffffffffffffffffffffffffffffffffff1614610a6d576040517f08c379a0000000000000000000000000000000000000000000000000000000008152600401610a6490612db1565b60405180910390fd5b80600a8190555050565b610a88610a82611710565b826117d1565b610ac7576040517f08c379a0000000000000000000000000000000000000000000000000000000008152600401610abe90612d45565b60405180910390fd5b610acf610d2d565b73ffffffffffffffffffffffffffffffffffffffff16610aed611710565b73ffffffffffffffffffffffffffffffffffffffff1614610b1157610b106118af565b5b610b2c83838360405180602001604052806000815250611b74565b505050565b6000600854905090565b6000806002600084815260200190815260200160002060009054906101000a900473ffffffffffffffffffffffffffffffffffffffff169050600073ffffffffffffffffffffffffffffffffffffffff168173ffffffffffffffffffffffffffffffffffffffff161415610be4576040517f08c379a0000000000000000000000000000000000000000000000000000000008152600401610bdb90612e43565b60405180910390fd5b80915050919050565b60008073ffffffffffffffffffffffffffffffffffffffff168273ffffffffffffffffffffffffffffffffffffffff161415610c5e576040517f08c379a0000000000000000000000000000000000000000000000000000000008152600401610c5590612ed5565b60405180910390fd5b600360008373ffffffffffffffffffffffffffffffffffffffff1673ffffffffffffffffffffffffffffffffffffffff168152602001908152602001600020549050919050565b610cad611710565b73ffffffffffffffffffffffffffffffffffffffff16610ccb610d2d565b73ffffffffffffffffffffffffffffffffffffffff1614610d21576040517f08c379a0000000000000000000000000000000000000000000000000000000008152600401610d1890612db1565b60405180910390fd5b610d2b6000611bd0565b565b6000600760009054906101000a900473ffffffffffffffffffffffffffffffffffffffff16905090565b606060018054610d6690612aeb565b80601f0160208091040260200160405190810160405280929190818152602001828054610d9290612aeb565b8015610ddf5780601f10610db457610100808354040283529160200191610ddf565b820191906000526020600020905b815481529060010190602001808311610dc257829003601f168201915b5050505050905090565b6000600a54905090565b610dfb611710565b73ffffffffffffffffffffffffffffffffffffffff168273ffffffffffffffffffffffffffffffffffffffff161415610e69576040517f08c379a0000000000000000000000000000000000000000000000000000000008152600401610e6090612f41565b60405180910390fd5b8060056000610e76611710565b73ffffffffffffffffffffffffffffffffffffffff1673ffffffffffffffffffffffffffffffffffffffff16815260200190815260200160002060008473ffffffffffffffffffffffffffffffffffffffff1673ffffffffffffffffffffffffffffffffffffffff16815260200190815260200160002060006101000a81548160ff0219169083151502179055508173ffffffffffffffffffffffffffffffffffffffff16610f23611710565b73ffffffffffffffffffffffffffffffffffffffff167f17307eab39ab6107e8899845ad3d59bd9653f200f220920489ca2b5937696c3183604051610f689190612467565b60405180910390a35050565b6000610f7e611710565b73ffffffffffffffffffffffffffffffffffffffff16610f9c610d2d565b73ffffffffffffffffffffffffffffffffffffffff1614610ff2576040517f08c379a0000000000000000000000000000000000000000000000000000000008152600401610fe990612db1565b60405180910390fd5b60146008541115611038576040517f08c379a000000000000000000000000000000000000000000000000000000000815260040161102f90612fad565b60405180910390fd5b611040610d2d565b73ffffffffffffffffffffffffffffffffffffffff166108fc349081150290604051600060405180830381858888f19350505050158015611085573d6000803e3d6000fd5b50600060085490506110978482611c96565b6110a18184611cb4565b6001600860008282546110b49190612ffc565b925050819055508091505092915050565b6110d66110d0611710565b836117d1565b611115576040517f08c379a000000000000000000000000000000000000000000000000000000000815260040161110c90612d45565b60405180910390fd5b61111d610d2d565b73ffffffffffffffffffffffffffffffffffffffff1661113b611710565b73ffffffffffffffffffffffffffffffffffffffff161461115f5761115e6118af565b5b61116b84848484611b74565b50505050565b606061117c826116a4565b6111bb576040517f08c379a00000000000000000000000000000000000000000000000000000000081526004016111b2906130c4565b60405180910390fd5b60006006600084815260200190815260200160002080546111db90612aeb565b80601f016020809104026020016040519081016040528092919081815260200182805461120790612aeb565b80156112545780601f1061122957610100808354040283529160200191611254565b820191906000526020600020905b81548152906001019060200180831161123757829003601f168201915b505050505090506000611265611d28565b905060008151141561127b5781925050506112be565b6000825111156112b0578082604051602001611298929190613120565b604051602081830303815290604052925050506112be565b6112b984611d3f565b925050505b919050565b60006112cd610d2d565b73ffffffffffffffffffffffffffffffffffffffff166112eb611710565b73ffffffffffffffffffffffffffffffffffffffff161461134c5760095434101561134b576040517f08c379a0000000000000000000000000000000000000000000000000000000008152600401611342906131b6565b60405180910390fd5b5b60146008541115611392576040517f08c379a000000000000000000000000000000000000000000000000000000000815260040161138990612fad565b60405180910390fd5b61139a610d2d565b73ffffffffffffffffffffffffffffffffffffffff163373ffffffffffffffffffffffffffffffffffffffff16146114185760016113d733610bed565b10611417576040517f08c379a000000000000000000000000000000000000000000000000000000000815260040161140e90613222565b60405180910390fd5b5b611420610d2d565b73ffffffffffffffffffffffffffffffffffffffff166108fc349081150290604051600060405180830381858888f19350505050158015611465573d6000803e3d6000fd5b50600060085490506114773382611c96565b6114818184611cb4565b6001600860008282546114949190612ffc565b9250508190555080915050919050565b6000600954905090565b6000600560008473ffffffffffffffffffffffffffffffffffffffff1673ffffffffffffffffffffffffffffffffffffffff16815260200190815260200160002060008373ffffffffffffffffffffffffffffffffffffffff1673ffffffffffffffffffffffffffffffffffffffff16815260200190815260200160002060009054906101000a900460ff16905092915050565b61154a611710565b73ffffffffffffffffffffffffffffffffffffffff16611568610d2d565b73ffffffffffffffffffffffffffffffffffffffff16146115be576040517f08c379a00000000000000000000000000000000000000000000000000000000081526004016115b590612db1565b60405180910390fd5b600073ffffffffffffffffffffffffffffffffffffffff168173ffffffffffffffffffffffffffffffffffffffff16141561162e576040517f08c379a0000000000000000000000000000000000000000000000000000000008152600401611625906132b4565b60405180910390fd5b61163781611bd0565b50565b60007f01ffc9a7000000000000000000000000000000000000000000000000000000007bffffffffffffffffffffffffffffffffffffffffffffffffffffffff1916827bffffffffffffffffffffffffffffffffffffffffffffffffffffffff1916149050919050565b60008073ffffffffffffffffffffffffffffffffffffffff166002600084815260200190815260200160002060009054906101000a900473ffffffffffffffffffffffffffffffffffffffff1673ffffffffffffffffffffffffffffffffffffffff1614159050919050565b600033905090565b816004600083815260200190815260200160002060006101000a81548173ffffffffffffffffffffffffffffffffffffffff021916908373ffffffffffffffffffffffffffffffffffffffff160217905550808273ffffffffffffffffffffffffffffffffffffffff1661178b83610b3b565b73ffffffffffffffffffffffffffffffffffffffff167f8c5be1e5ebec7d5bd14f71427d1e84f3dd0314c0f7b2291e5b200ac8c7c3b92560405160405180910390a45050565b60006117dc826116a4565b61181b576040517f08c379a000000000000000000000000000000000000000000000000000000000815260040161181290613346565b60405180910390fd5b600061182683610b3b565b90508073ffffffffffffffffffffffffffffffffffffffff168473ffffffffffffffffffffffffffffffffffffffff16148061189557508373ffffffffffffffffffffffffffffffffffffffff1661187d8461071e565b73ffffffffffffffffffffffffffffffffffffffff16145b806118a657506118a581856114ae565b5b91505092915050565b6118b7610d2d565b73ffffffffffffffffffffffffffffffffffffffff166108fc6064600a546118df9190613395565b346118ea91906133c6565b9081150290604051600060405180830381858888f19350505050158015611915573d6000803e3d6000fd5b50565b8273ffffffffffffffffffffffffffffffffffffffff1661193882610b3b565b73ffffffffffffffffffffffffffffffffffffffff161461198e576040517f08c379a000000000000000000000000000000000000000000000000000000000815260040161198590613492565b60405180910390fd5b600073ffffffffffffffffffffffffffffffffffffffff168273ffffffffffffffffffffffffffffffffffffffff1614156119fe576040517f08c379a00000000000000000000000000000000000000000000000000000000081526004016119f590613524565b60405180910390fd5b611a09838383611de6565b611a14600082611718565b6001600360008573ffffffffffffffffffffffffffffffffffffffff1673ffffffffffffffffffffffffffffffffffffffff1681526020019081526020016000206000828254611a649190613544565b925050819055506001600360008473ffffffffffffffffffffffffffffffffffffffff1673ffffffffffffffffffffffffffffffffffffffff1681526020019081526020016000206000828254611abb9190612ffc565b92505081905550816002600083815260200190815260200160002060006101000a81548173ffffffffffffffffffffffffffffffffffffffff021916908373ffffffffffffffffffffffffffffffffffffffff160217905550808273ffffffffffffffffffffffffffffffffffffffff168473ffffffffffffffffffffffffffffffffffffffff167fddf252ad1be2c89b69c2b068fc378daa952ba7f163c4a11628f55a4df523b3ef60405160405180910390a4505050565b611b7f848484611918565b611b8b84848484611deb565b611bca576040517f08c379a0000000000000000000000000000000000000000000000000000000008152600401611bc1906135ea565b60405180910390fd5b50505050565b6000600760009054906101000a900473ffffffffffffffffffffffffffffffffffffffff16905081600760006101000a81548173ffffffffffffffffffffffffffffffffffffffff021916908373ffffffffffffffffffffffffffffffffffffffff1602179055508173ffffffffffffffffffffffffffffffffffffffff168173ffffffffffffffffffffffffffffffffffffffff167f8be0079c531659141344cd1fd0a4f28419497f9722a3daafe3b4186f6b6457e060405160405180910390a35050565b611cb0828260405180602001604052806000815250611f73565b5050565b611cbd826116a4565b611cfc576040517f08c379a0000000000000000000000000000000000000000000000000000000008152600401611cf39061367c565b60405180910390fd5b80600660008481526020019081526020016000209080519060200190611d23929190612310565b505050565b606060405180602001604052806000815250905090565b6060611d4a826116a4565b611d89576040517f08c379a0000000000000000000000000000000000000000000000000000000008152600401611d809061370e565b60405180910390fd5b6000611d93611d28565b90506000815111611db35760405180602001604052806000815250611dde565b80611dbd84611fce565b604051602001611dce929190613120565b6040516020818303038152906040525b915050919050565b505050565b6000611e0c8473ffffffffffffffffffffffffffffffffffffffff1661212f565b15611f66578373ffffffffffffffffffffffffffffffffffffffff1663150b7a02611e35611710565b8786866040518563ffffffff1660e01b8152600401611e579493929190613783565b6020604051808303816000875af1925050508015611e9357506040513d601f19601f82011682018060405250810190611e9091906137e4565b60015b611f16573d8060008114611ec3576040519150601f19603f3d011682016040523d82523d6000602084013e611ec8565b606091505b50600081511415611f0e576040517f08c379a0000000000000000000000000000000000000000000000000000000008152600401611f05906135ea565b60405180910390fd5b805181602001fd5b63150b7a0260e01b7bffffffffffffffffffffffffffffffffffffffffffffffffffffffff1916817bffffffffffffffffffffffffffffffffffffffffffffffffffffffff191614915050611f6b565b600190505b949350505050565b611f7d8383612142565b611f8a6000848484611deb565b611fc9576040517f08c379a0000000000000000000000000000000000000000000000000000000008152600401611fc0906135ea565b60405180910390fd5b505050565b60606000821415612016576040518060400160405280600181526020017f3000000000000000000000000000000000000000000000000000000000000000815250905061212a565b600082905060005b6000821461204857808061203190613811565b915050600a826120419190613395565b915061201e565b60008167ffffffffffffffff81111561206457612063612788565b5b6040519080825280601f01601f1916602001820160405280156120965781602001600182028036833780820191505090505b5090505b60008514612123576001826120af9190613544565b9150600a856120be919061385a565b60306120ca9190612ffc565b60f81b8183815181106120e0576120df61388b565b5b60200101907effffffffffffffffffffffffffffffffffffffffffffffffffffffffffffff1916908160001a905350600a8561211c9190613395565b945061209a565b8093505050505b919050565b600080823b905060008111915050919050565b600073ffffffffffffffffffffffffffffffffffffffff168273ffffffffffffffffffffffffffffffffffffffff1614156121b2576040517f08c379a00000000000000000000000000000000000000000000000000000000081526004016121a990613906565b60405180910390fd5b6121bb816116a4565b156121fb576040517f08c379a00000000000000000000000000000000000000000000000000000000081526004016121f290613972565b60405180910390fd5b61220760008383611de6565b6001600360008473ffffffffffffffffffffffffffffffffffffffff1673ffffffffffffffffffffffffffffffffffffffff16815260200190815260200160002060008282546122579190612ffc565b92505081905550816002600083815260200190815260200160002060006101000a81548173ffffffffffffffffffffffffffffffffffffffff021916908373ffffffffffffffffffffffffffffffffffffffff160217905550808273ffffffffffffffffffffffffffffffffffffffff16600073ffffffffffffffffffffffffffffffffffffffff167fddf252ad1be2c89b69c2b068fc378daa952ba7f163c4a11628f55a4df523b3ef60405160405180910390a45050565b82805461231c90612aeb565b90600052602060002090601f01602090048101928261233e5760008555612385565b82601f1061235757805160ff1916838001178555612385565b82800160010185558215612385579182015b82811115612384578251825591602001919060010190612369565b5b5090506123929190612396565b5090565b5b808211156123af576000816000905550600101612397565b5090565b6000604051905090565b600080fd5b600080fd5b60007fffffffff0000000000000000000000000000000000000000000000000000000082169050919050565b6123fc816123c7565b811461240757600080fd5b50565b600081359050612419816123f3565b92915050565b600060208284031215612435576124346123bd565b5b60006124438482850161240a565b91505092915050565b60008115159050919050565b6124618161244c565b82525050565b600060208201905061247c6000830184612458565b92915050565b600081519050919050565b600082825260208201905092915050565b60005b838110156124bc5780820151818401526020810190506124a1565b838111156124cb576000848401525b50505050565b6000601f19601f8301169050919050565b60006124ed82612482565b6124f7818561248d565b935061250781856020860161249e565b612510816124d1565b840191505092915050565b6000602082019050818103600083015261253581846124e2565b905092915050565b6000819050919050565b6125508161253d565b811461255b57600080fd5b50565b60008135905061256d81612547565b92915050565b600060208284031215612589576125886123bd565b5b60006125978482850161255e565b91505092915050565b600073ffffffffffffffffffffffffffffffffffffffff82169050919050565b60006125cb826125a0565b9050919050565b6125db816125c0565b82525050565b60006020820190506125f660008301846125d2565b92915050565b612605816125c0565b811461261057600080fd5b50565b600081359050612622816125fc565b92915050565b6000806040838503121561263f5761263e6123bd565b5b600061264d85828601612613565b925050602061265e8582860161255e565b9150509250929050565b6126718161253d565b82525050565b600060208201905061268c6000830184612668565b92915050565b6000806000606084860312156126ab576126aa6123bd565b5b60006126b986828701612613565b93505060206126ca86828701612613565b92505060406126db8682870161255e565b9150509250925092565b6000602082840312156126fb576126fa6123bd565b5b600061270984828501612613565b91505092915050565b61271b8161244c565b811461272657600080fd5b50565b60008135905061273881612712565b92915050565b60008060408385031215612755576127546123bd565b5b600061276385828601612613565b925050602061277485828601612729565b9150509250929050565b600080fd5b600080fd5b7f4e487b7100000000000000000000000000000000000000000000000000000000600052604160045260246000fd5b6127c0826124d1565b810181811067ffffffffffffffff821117156127df576127de612788565b5b80604052505050565b60006127f26123b3565b90506127fe82826127b7565b919050565b600067ffffffffffffffff82111561281e5761281d612788565b5b612827826124d1565b9050602081019050919050565b82818337600083830152505050565b600061285661285184612803565b6127e8565b90508281526020810184848401111561287257612871612783565b5b61287d848285612834565b509392505050565b600082601f83011261289a5761289961277e565b5b81356128aa848260208601612843565b91505092915050565b600080604083850312156128ca576128c96123bd565b5b60006128d885828601612613565b925050602083013567ffffffffffffffff8111156128f9576128f86123c2565b5b61290585828601612885565b9150509250929050565b600067ffffffffffffffff82111561292a57612929612788565b5b612933826124d1565b9050602081019050919050565b600061295361294e8461290f565b6127e8565b90508281526020810184848401111561296f5761296e612783565b5b61297a848285612834565b509392505050565b600082601f8301126129975761299661277e565b5b81356129a7848260208601612940565b91505092915050565b600080600080608085870312156129ca576129c96123bd565b5b60006129d887828801612613565b94505060206129e987828801612613565b93505060406129fa8782880161255e565b925050606085013567ffffffffffffffff811115612a1b57612a1a6123c2565b5b612a2787828801612982565b91505092959194509250565b600060208284031215612a4957612a486123bd565b5b600082013567ffffffffffffffff811115612a6757612a666123c2565b5b612a7384828501612885565b91505092915050565b60008060408385031215612a9357612a926123bd565b5b6000612aa185828601612613565b9250506020612ab285828601612613565b9150509250929050565b7f4e487b7100000000000000000000000000000000000000000000000000000000600052602260045260246000fd5b60006002820490506001821680612b0357607f821691505b60208210811415612b1757612b16612abc565b5b50919050565b7f4552433732313a20617070726f76656420717565727920666f72206e6f6e657860008201527f697374656e7420746f6b656e0000000000000000000000000000000000000000602082015250565b6000612b79602c8361248d565b9150612b8482612b1d565b604082019050919050565b60006020820190508181036000830152612ba881612b6c565b9050919050565b7f4552433732313a20617070726f76616c20746f2063757272656e74206f776e6560008201527f7200000000000000000000000000000000000000000000000000000000000000602082015250565b6000612c0b60218361248d565b9150612c1682612baf565b604082019050919050565b60006020820190508181036000830152612c3a81612bfe565b9050919050565b7f4552433732313a20617070726f76652063616c6c6572206973206e6f74206f7760008201527f6e6572206e6f7220617070726f76656420666f7220616c6c0000000000000000602082015250565b6000612c9d60388361248d565b9150612ca882612c41565b604082019050919050565b60006020820190508181036000830152612ccc81612c90565b9050919050565b7f4552433732313a207472616e736665722063616c6c6572206973206e6f74206f60008201527f776e6572206f7220617070726f76656400000000000000000000000000000000602082015250565b6000612d2f60308361248d565b9150612d3a82612cd3565b604082019050919050565b60006020820190508181036000830152612d5e81612d22565b9050919050565b7f4f776e61626c653a2063616c6c6572206973206e6f7420746865206f776e6572600082015250565b6000612d9b60208361248d565b9150612da682612d65565b602082019050919050565b60006020820190508181036000830152612dca81612d8e565b9050919050565b7f4552433732313a206f776e657220717565727920666f72206e6f6e657869737460008201527f656e7420746f6b656e0000000000000000000000000000000000000000000000602082015250565b6000612e2d60298361248d565b9150612e3882612dd1565b604082019050919050565b60006020820190508181036000830152612e5c81612e20565b9050919050565b7f4552433732313a2062616c616e636520717565727920666f7220746865207a6560008201527f726f206164647265737300000000000000000000000000000000000000000000602082015250565b6000612ebf602a8361248d565b9150612eca82612e63565b604082019050919050565b60006020820190508181036000830152612eee81612eb2565b9050919050565b7f4552433732313a20617070726f766520746f2063616c6c657200000000000000600082015250565b6000612f2b60198361248d565b9150612f3682612ef5565b602082019050919050565b60006020820190508181036000830152612f5a81612f1e565b9050919050565b7f416c6c20323020746f6b656e732068617665206265656e206d696e7465642100600082015250565b6000612f97601f8361248d565b9150612fa282612f61565b602082019050919050565b60006020820190508181036000830152612fc681612f8a565b9050919050565b7f4e487b7100000000000000000000000000000000000000000000000000000000600052601160045260246000fd5b60006130078261253d565b91506130128361253d565b9250827fffffffffffffffffffffffffffffffffffffffffffffffffffffffffffffffff0382111561304757613046612fcd565b5b828201905092915050565b7f45524337323155524953746f726167653a2055524920717565727920666f722060008201527f6e6f6e6578697374656e7420746f6b656e000000000000000000000000000000602082015250565b60006130ae60318361248d565b91506130b982613052565b604082019050919050565b600060208201905081810360008301526130dd816130a1565b9050919050565b600081905092915050565b60006130fa82612482565b61310481856130e4565b935061311481856020860161249e565b80840191505092915050565b600061312c82856130ef565b915061313882846130ef565b91508190509392505050565b7f4d696e742066656520776173206e6f7420696e636c756465642077697468206360008201527f616c6c0000000000000000000000000000000000000000000000000000000000602082015250565b60006131a060238361248d565b91506131ab82613144565b604082019050919050565b600060208201905081810360008301526131cf81613193565b9050919050565b7f4f6e6c79206f6e65205065722041646472657373000000000000000000000000600082015250565b600061320c60148361248d565b9150613217826131d6565b602082019050919050565b6000602082019050818103600083015261323b816131ff565b9050919050565b7f4f776e61626c653a206e6577206f776e657220697320746865207a65726f206160008201527f6464726573730000000000000000000000000000000000000000000000000000602082015250565b600061329e60268361248d565b91506132a982613242565b604082019050919050565b600060208201905081810360008301526132cd81613291565b9050919050565b7f4552433732313a206f70657261746f7220717565727920666f72206e6f6e657860008201527f697374656e7420746f6b656e0000000000000000000000000000000000000000602082015250565b6000613330602c8361248d565b915061333b826132d4565b604082019050919050565b6000602082019050818103600083015261335f81613323565b9050919050565b7f4e487b7100000000000000000000000000000000000000000000000000000000600052601260045260246000fd5b60006133a08261253d565b91506133ab8361253d565b9250826133bb576133ba613366565b5b828204905092915050565b60006133d18261253d565b91506133dc8361253d565b9250817fffffffffffffffffffffffffffffffffffffffffffffffffffffffffffffffff048311821515161561341557613414612fcd565b5b828202905092915050565b7f4552433732313a207472616e73666572206f6620746f6b656e2074686174206960008201527f73206e6f74206f776e0000000000000000000000000000000000000000000000602082015250565b600061347c60298361248d565b915061348782613420565b604082019050919050565b600060208201905081810360008301526134ab8161346f565b9050919050565b7f4552433732313a207472616e7366657220746f20746865207a65726f2061646460008201527f7265737300000000000000000000000000000000000000000000000000000000602082015250565b600061350e60248361248d565b9150613519826134b2565b604082019050919050565b6000602082019050818103600083015261353d81613501565b9050919050565b600061354f8261253d565b915061355a8361253d565b92508282101561356d5761356c612fcd565b5b828203905092915050565b7f4552433732313a207472616e7366657220746f206e6f6e20455243373231526560008201527f63656976657220696d706c656d656e7465720000000000000000000000000000602082015250565b60006135d460328361248d565b91506135df82613578565b604082019050919050565b60006020820190508181036000830152613603816135c7565b9050919050565b7f45524337323155524953746f726167653a2055524920736574206f66206e6f6e60008201527f6578697374656e7420746f6b656e000000000000000000000000000000000000602082015250565b6000613666602e8361248d565b91506136718261360a565b604082019050919050565b6000602082019050818103600083015261369581613659565b9050919050565b7f4552433732314d657461646174613a2055524920717565727920666f72206e6f60008201527f6e6578697374656e7420746f6b656e0000000000000000000000000000000000602082015250565b60006136f8602f8361248d565b91506137038261369c565b604082019050919050565b60006020820190508181036000830152613727816136eb565b9050919050565b600081519050919050565b600082825260208201905092915050565b60006137558261372e565b61375f8185613739565b935061376f81856020860161249e565b613778816124d1565b840191505092915050565b600060808201905061379860008301876125d2565b6137a560208301866125d2565b6137b26040830185612668565b81810360608301526137c4818461374a565b905095945050505050565b6000815190506137de816123f3565b92915050565b6000602082840312156137fa576137f96123bd565b5b6000613808848285016137cf565b91505092915050565b600061381c8261253d565b91507fffffffffffffffffffffffffffffffffffffffffffffffffffffffffffffffff82141561384f5761384e612fcd565b5b600182019050919050565b60006138658261253d565b91506138708361253d565b9250826138805761387f613366565b5b828206905092915050565b7f4e487b7100000000000000000000000000000000000000000000000000000000600052603260045260246000fd5b7f4552433732313a206d696e7420746f20746865207a65726f2061646472657373600082015250565b60006138f060208361248d565b91506138fb826138ba565b602082019050919050565b6000602082019050818103600083015261391f816138e3565b9050919050565b7f4552433732313a20746f6b656e20616c7265616479206d696e74656400000000600082015250565b600061395c601c8361248d565b915061396782613926565b602082019050919050565b6000602082019050818103600083015261398b8161394f565b905091905056fea26469706673582212203c85840a321b737e2a8283241b9bdaa90f427f3a5c53da5ff8716f78c84e684464736f6c634300080a0033",
  "immutableReferences": {},
  "source": "pragma solidity ^0.8.10;\r\n\r\nimport \"@openzeppelin/contracts/token/ERC721/ERC721.sol\";\r\nimport \"@openzeppelin/contracts/token/ERC721/extensions/ERC721URIStorage.sol\";\r\nimport \"@openzeppelin/contracts/utils/math/SafeMath.sol\";\r\nimport \"@openzeppelin/contracts/access/Ownable.sol\";\r\n\r\ncontract MuseumVIPTicket is ERC721URIStorage, Ownable {\r\n\r\n    uint256 public tokenId;\r\n    uint256 private _mintFee;\r\n    uint256 private _royaltyFee;\r\n\r\n    constructor () ERC721 (\"MuseumVIPTicket\", \"Cr3w\") Ownable(){\r\n        tokenId = 1;\r\n        _mintFee = .005 ether;\r\n        _royaltyFee = 5;\r\n    }\r\n\r\n    function SetMintFee(uint256 _feeAmount) external onlyOwner() {\r\n        _mintFee = _feeAmount;\r\n    }\r\n\r\n    function SetRoyaltyFee(uint _feePercentage) external onlyOwner() {\r\n        _royaltyFee = _feePercentage;\r\n    }\r\n\r\n    function GetRoyaltyFee() external view returns(uint){\r\n        return _royaltyFee;\r\n    }\r\n\r\n    function GetMintFee() external view returns(uint){\r\n        return _mintFee;\r\n    }\r\n\r\n    function GetCurrentTokenId() external view returns(uint){\r\n        return tokenId;\r\n    }\r\n\r\n    function transferFrom(address from, address to, uint256 tokenId) public override {\r\n        require(_isApprovedOrOwner(_msgSender(),tokenId), 'ERC721: transfer caller is not owner or approved');\r\n\r\n        if(_msgSender() != owner()){\r\n            _payRoyaltyFee();\r\n        }\r\n\r\n        _transfer(from,to,tokenId);\r\n    }\r\n\r\n    function safeTransferFrom(address from, address to, uint256 tokenId) public override {\r\n        require(_isApprovedOrOwner(_msgSender(),tokenId), 'ERC721: transfer caller is not owner or approved');\r\n\r\n        if(_msgSender() != owner()){\r\n            _payRoyaltyFee();\r\n        }\r\n\r\n        _safeTransfer(from, to, tokenId, '');\r\n    }\r\n\r\n    function safeTransferFrom(address from, address to, uint256 tokenId, bytes memory _data) public override {\r\n        require(_isApprovedOrOwner(_msgSender(),tokenId), 'ERC721: transfer caller is not owner or approved');\r\n\r\n        if(_msgSender() != owner()){\r\n            _payRoyaltyFee();\r\n        }\r\n\r\n        _safeTransfer(from, to, tokenId, _data);\r\n    }\r\n\r\n    function createNFT(string memory tokenURI) public payable hasMintFee() returns (uint256) {\r\n        require(tokenId <= 20, 'All 20 tokens have been minted!');\r\n        if(msg.sender != owner()){\r\n            require(balanceOf(msg.sender) < 1, 'Only one Per Address');\r\n        }\r\n        payable(owner()).transfer(msg.value);\r\n\r\n        uint256 newNFTTokenId = tokenId;\r\n\r\n        _safeMint(msg.sender,newNFTTokenId);\r\n\r\n        _setTokenURI(newNFTTokenId, tokenURI);\r\n\r\n        tokenId += 1;\r\n\r\n        return newNFTTokenId;\r\n    }\r\n\r\n    function createNFT(address recipient, string memory tokenURI) public payable onlyOwner() returns (uint256) {\r\n        require(tokenId <= 20, 'All 20 tokens have been minted!');\r\n        payable(owner()).transfer(msg.value);\r\n\r\n        uint256 newNFTTokenId = tokenId;\r\n\r\n        _safeMint(recipient,newNFTTokenId);\r\n\r\n        _setTokenURI(newNFTTokenId, tokenURI);\r\n\r\n        tokenId += 1;\r\n\r\n        return newNFTTokenId;\r\n    }\r\n\r\n    modifier hasMintFee() {\r\n        if(_msgSender() != owner()){\r\n            require(msg.value >= _mintFee, 'Mint fee was not included with call');\r\n        }\r\n        _;\r\n    }\r\n\r\n    function _payRoyaltyFee() internal {\r\n        payable(owner()).transfer(msg.value * (_royaltyFee/100));\r\n    }\r\n}",
  "sourcePath": "C:\\Users\\HP\\OneDrive\\Documents\\Programing\\NFT Creator\\MuseumTicketNFT\\contracts\\MuseumVIPTicketContract.sol",
  "compiler": {
    "name": "solc",
    "version": "0.8.10+commit.fc410830.Emscripten.clang"
  },
  "schemaVersion": "3.4.3",
  "updatedAt": "2021-12-11T12:50:26.659Z",
  "networkType": "ethereum",
  "devdoc": {
    "kind": "dev",
    "methods": {
      "approve(address,uint256)": {
        "details": "See {IERC721-approve}."
      },
      "balanceOf(address)": {
        "details": "See {IERC721-balanceOf}."
      },
      "getApproved(uint256)": {
        "details": "See {IERC721-getApproved}."
      },
      "isApprovedForAll(address,address)": {
        "details": "See {IERC721-isApprovedForAll}."
      },
      "name()": {
        "details": "See {IERC721Metadata-name}."
      },
      "owner()": {
        "details": "Returns the address of the current owner."
      },
      "ownerOf(uint256)": {
        "details": "See {IERC721-ownerOf}."
      },
      "renounceOwnership()": {
        "details": "Leaves the contract without owner. It will not be possible to call `onlyOwner` functions anymore. Can only be called by the current owner. NOTE: Renouncing ownership will leave the contract without an owner, thereby removing any functionality that is only available to the owner."
      },
      "safeTransferFrom(address,address,uint256)": {
        "details": "See {IERC721-safeTransferFrom}."
      },
      "safeTransferFrom(address,address,uint256,bytes)": {
        "details": "See {IERC721-safeTransferFrom}."
      },
      "setApprovalForAll(address,bool)": {
        "details": "See {IERC721-setApprovalForAll}."
      },
      "supportsInterface(bytes4)": {
        "details": "See {IERC165-supportsInterface}."
      },
      "symbol()": {
        "details": "See {IERC721Metadata-symbol}."
      },
      "tokenURI(uint256)": {
        "details": "See {IERC721Metadata-tokenURI}."
      },
      "transferFrom(address,address,uint256)": {
        "details": "See {IERC721-transferFrom}."
      },
      "transferOwnership(address)": {
        "details": "Transfers ownership of the contract to a new account (`newOwner`). Can only be called by the current owner."
      }
    },
    "version": 1
  },
  "userdoc": {
    "kind": "user",
    "methods": {},
    "version": 1
  }
}