{
  "contractName": "MuseumGATicket",
  "abi": [
    {
      "inputs": [],
      "stateMutability": "nonpayable",
      "type": "constructor"
    },
    {
      "anonymous": false,
      "inputs": [
        {
          "indexed": true,
          "internalType": "address",
          "name": "owner",
          "type": "address"
        },
        {
          "indexed": true,
          "internalType": "address",
          "name": "approved",
          "type": "address"
        },
        {
          "indexed": true,
          "internalType": "uint256",
          "name": "tokenId",
          "type": "uint256"
        }
      ],
      "name": "Approval",
      "type": "event"
    },
    {
      "anonymous": false,
      "inputs": [
        {
          "indexed": true,
          "internalType": "address",
          "name": "owner",
          "type": "address"
        },
        {
          "indexed": true,
          "internalType": "address",
          "name": "operator",
          "type": "address"
        },
        {
          "indexed": false,
          "internalType": "bool",
          "name": "approved",
          "type": "bool"
        }
      ],
      "name": "ApprovalForAll",
      "type": "event"
    },
    {
      "anonymous": false,
      "inputs": [
        {
          "indexed": true,
          "internalType": "address",
          "name": "previousOwner",
          "type": "address"
        },
        {
          "indexed": true,
          "internalType": "address",
          "name": "newOwner",
          "type": "address"
        }
      ],
      "name": "OwnershipTransferred",
      "type": "event"
    },
    {
      "anonymous": false,
      "inputs": [
        {
          "indexed": true,
          "internalType": "address",
          "name": "from",
          "type": "address"
        },
        {
          "indexed": true,
          "internalType": "address",
          "name": "to",
          "type": "address"
        },
        {
          "indexed": true,
          "internalType": "uint256",
          "name": "tokenId",
          "type": "uint256"
        }
      ],
      "name": "Transfer",
      "type": "event"
    },
    {
      "inputs": [
        {
          "internalType": "address",
          "name": "to",
          "type": "address"
        },
        {
          "internalType": "uint256",
          "name": "tokenId",
          "type": "uint256"
        }
      ],
      "name": "approve",
      "outputs": [],
      "stateMutability": "nonpayable",
      "type": "function"
    },
    {
      "inputs": [
        {
          "internalType": "address",
          "name": "owner",
          "type": "address"
        }
      ],
      "name": "balanceOf",
      "outputs": [
        {
          "internalType": "uint256",
          "name": "",
          "type": "uint256"
        }
      ],
      "stateMutability": "view",
      "type": "function",
      "constant": true
    },
    {
      "inputs": [
        {
          "internalType": "uint256",
          "name": "tokenId",
          "type": "uint256"
        }
      ],
      "name": "getApproved",
      "outputs": [
        {
          "internalType": "address",
          "name": "",
          "type": "address"
        }
      ],
      "stateMutability": "view",
      "type": "function",
      "constant": true
    },
    {
      "inputs": [
        {
          "internalType": "address",
          "name": "owner",
          "type": "address"
        },
        {
          "internalType": "address",
          "name": "operator",
          "type": "address"
        }
      ],
      "name": "isApprovedForAll",
      "outputs": [
        {
          "internalType": "bool",
          "name": "",
          "type": "bool"
        }
      ],
      "stateMutability": "view",
      "type": "function",
      "constant": true
    },
    {
      "inputs": [],
      "name": "name",
      "outputs": [
        {
          "internalType": "string",
          "name": "",
          "type": "string"
        }
      ],
      "stateMutability": "view",
      "type": "function",
      "constant": true
    },
    {
      "inputs": [],
      "name": "owner",
      "outputs": [
        {
          "internalType": "address",
          "name": "",
          "type": "address"
        }
      ],
      "stateMutability": "view",
      "type": "function",
      "constant": true
    },
    {
      "inputs": [
        {
          "internalType": "uint256",
          "name": "tokenId",
          "type": "uint256"
        }
      ],
      "name": "ownerOf",
      "outputs": [
        {
          "internalType": "address",
          "name": "",
          "type": "address"
        }
      ],
      "stateMutability": "view",
      "type": "function",
      "constant": true
    },
    {
      "inputs": [],
      "name": "renounceOwnership",
      "outputs": [],
      "stateMutability": "nonpayable",
      "type": "function"
    },
    {
      "inputs": [
        {
          "internalType": "address",
          "name": "operator",
          "type": "address"
        },
        {
          "internalType": "bool",
          "name": "approved",
          "type": "bool"
        }
      ],
      "name": "setApprovalForAll",
      "outputs": [],
      "stateMutability": "nonpayable",
      "type": "function"
    },
    {
      "inputs": [
        {
          "internalType": "bytes4",
          "name": "interfaceId",
          "type": "bytes4"
        }
      ],
      "name": "supportsInterface",
      "outputs": [
        {
          "internalType": "bool",
          "name": "",
          "type": "bool"
        }
      ],
      "stateMutability": "view",
      "type": "function",
      "constant": true
    },
    {
      "inputs": [],
      "name": "symbol",
      "outputs": [
        {
          "internalType": "string",
          "name": "",
          "type": "string"
        }
      ],
      "stateMutability": "view",
      "type": "function",
      "constant": true
    },
    {
      "inputs": [],
      "name": "tokenId",
      "outputs": [
        {
          "internalType": "uint256",
          "name": "",
          "type": "uint256"
        }
      ],
      "stateMutability": "view",
      "type": "function",
      "constant": true
    },
    {
      "inputs": [
        {
          "internalType": "uint256",
          "name": "tokenId",
          "type": "uint256"
        }
      ],
      "name": "tokenURI",
      "outputs": [
        {
          "internalType": "string",
          "name": "",
          "type": "string"
        }
      ],
      "stateMutability": "view",
      "type": "function",
      "constant": true
    },
    {
      "inputs": [
        {
          "internalType": "address",
          "name": "newOwner",
          "type": "address"
        }
      ],
      "name": "transferOwnership",
      "outputs": [],
      "stateMutability": "nonpayable",
      "type": "function"
    },
    {
      "inputs": [],
      "name": "GetRoyaltyFee",
      "outputs": [
        {
          "internalType": "uint256",
          "name": "",
          "type": "uint256"
        }
      ],
      "stateMutability": "view",
      "type": "function",
      "constant": true
    },
    {
      "inputs": [],
      "name": "GetMintFee",
      "outputs": [
        {
          "internalType": "uint256",
          "name": "",
          "type": "uint256"
        }
      ],
      "stateMutability": "view",
      "type": "function",
      "constant": true
    },
    {
      "inputs": [],
      "name": "GetCurrentTokenId",
      "outputs": [
        {
          "internalType": "uint256",
          "name": "",
          "type": "uint256"
        }
      ],
      "stateMutability": "view",
      "type": "function",
      "constant": true
    },
    {
      "inputs": [],
      "name": "GetArtist",
      "outputs": [
        {
          "internalType": "address",
          "name": "",
          "type": "address"
        }
      ],
      "stateMutability": "view",
      "type": "function",
      "constant": true
    },
    {
      "inputs": [
        {
          "internalType": "address payable",
          "name": "_artistAddress",
          "type": "address"
        }
      ],
      "name": "SetArtistAddress",
      "outputs": [],
      "stateMutability": "nonpayable",
      "type": "function"
    },
    {
      "inputs": [
        {
          "internalType": "uint256",
          "name": "_feeAmount",
          "type": "uint256"
        }
      ],
      "name": "SetMintFee",
      "outputs": [],
      "stateMutability": "nonpayable",
      "type": "function"
    },
    {
      "inputs": [
        {
          "internalType": "uint256",
          "name": "_feePercentage",
          "type": "uint256"
        }
      ],
      "name": "SetRoyaltyFee",
      "outputs": [],
      "stateMutability": "nonpayable",
      "type": "function"
    },
    {
      "inputs": [
        {
          "internalType": "address",
          "name": "from",
          "type": "address"
        },
        {
          "internalType": "address",
          "name": "to",
          "type": "address"
        },
        {
          "internalType": "uint256",
          "name": "tokenId",
          "type": "uint256"
        }
      ],
      "name": "transferFrom",
      "outputs": [],
      "stateMutability": "nonpayable",
      "type": "function"
    },
    {
      "inputs": [
        {
          "internalType": "address",
          "name": "from",
          "type": "address"
        },
        {
          "internalType": "address",
          "name": "to",
          "type": "address"
        },
        {
          "internalType": "uint256",
          "name": "tokenId",
          "type": "uint256"
        }
      ],
      "name": "safeTransferFrom",
      "outputs": [],
      "stateMutability": "nonpayable",
      "type": "function"
    },
    {
      "inputs": [
        {
          "internalType": "address",
          "name": "from",
          "type": "address"
        },
        {
          "internalType": "address",
          "name": "to",
          "type": "address"
        },
        {
          "internalType": "uint256",
          "name": "tokenId",
          "type": "uint256"
        },
        {
          "internalType": "bytes",
          "name": "_data",
          "type": "bytes"
        }
      ],
      "name": "safeTransferFrom",
      "outputs": [],
      "stateMutability": "nonpayable",
      "type": "function"
    },
    {
      "inputs": [
        {
          "internalType": "string",
          "name": "tokenURI",
          "type": "string"
        }
      ],
      "name": "createNFT",
      "outputs": [
        {
          "internalType": "uint256",
          "name": "",
          "type": "uint256"
        }
      ],
      "stateMutability": "payable",
      "type": "function",
      "payable": true
    }
  ],
  "bytecode": "0x60806040523480156200001157600080fd5b506040518060400160405280600e81526020017f4d757365756d47415469636b65740000000000000000000000000000000000008152506040518060400160405280600481526020017f437233770000000000000000000000000000000000000000000000000000000081525081600090805190602001906200009692919062000205565b508060019080519060200190620000af92919062000205565b505050620000d2620000c66200013760201b60201c565b6200013f60201b60201c565b600160088190555033600960006101000a81548173ffffffffffffffffffffffffffffffffffffffff021916908373ffffffffffffffffffffffffffffffffffffffff16021790555066038d7ea4c68000600a819055506001600b819055506200031a565b600033905090565b6000600760009054906101000a900473ffffffffffffffffffffffffffffffffffffffff16905081600760006101000a81548173ffffffffffffffffffffffffffffffffffffffff021916908373ffffffffffffffffffffffffffffffffffffffff1602179055508173ffffffffffffffffffffffffffffffffffffffff168173ffffffffffffffffffffffffffffffffffffffff167f8be0079c531659141344cd1fd0a4f28419497f9722a3daafe3b4186f6b6457e060405160405180910390a35050565b8280546200021390620002e4565b90600052602060002090601f01602090048101928262000237576000855562000283565b82601f106200025257805160ff191683800117855562000283565b8280016001018555821562000283579182015b828111156200028257825182559160200191906001019062000265565b5b50905062000292919062000296565b5090565b5b80821115620002b157600081600090555060010162000297565b5090565b7f4e487b7100000000000000000000000000000000000000000000000000000000600052602260045260246000fd5b60006002820490506001821680620002fd57607f821691505b60208210811415620003145762000313620002b5565b5b50919050565b613ae1806200032a6000396000f3fe6080604052600436106101665760003560e01c8063715018a6116100d1578063b8afb38a1161008a578063e4df88be11610064578063e4df88be1461052d578063e87a3e9314610558578063e985e9c514610583578063f2fde38b146105c057610166565b8063b8afb38a14610497578063c87b56dd146104c0578063da2ed03e146104fd57610166565b8063715018a6146103ad5780638da5cb5b146103c457806395d89b41146103ef578063a21c66041461041a578063a22cb46514610445578063b88d4fde1461046e57610166565b8063276a443d11610123578063276a443d1461028d57806330e754d0146102b657806342842e0e146102df5780634f783672146103085780636352211e1461033357806370a082311461037057610166565b806301ffc9a71461016b57806306fdde03146101a8578063081812fc146101d3578063095ea7b31461021057806317d70f7c1461023957806323b872dd14610264575b600080fd5b34801561017757600080fd5b50610192600480360381019061018d9190612529565b6105e9565b60405161019f9190612571565b60405180910390f35b3480156101b457600080fd5b506101bd6106cb565b6040516101ca9190612625565b60405180910390f35b3480156101df57600080fd5b506101fa60048036038101906101f5919061267d565b61075d565b60405161020791906126eb565b60405180910390f35b34801561021c57600080fd5b5061023760048036038101906102329190612732565b6107e2565b005b34801561024557600080fd5b5061024e6108fa565b60405161025b9190612781565b60405180910390f35b34801561027057600080fd5b5061028b6004803603810190610286919061279c565b610900565b005b34801561029957600080fd5b506102b460048036038101906102af919061267d565b6109c5565b005b3480156102c257600080fd5b506102dd60048036038101906102d8919061267d565b610a4b565b005b3480156102eb57600080fd5b506103066004803603810190610301919061279c565b610ad1565b005b34801561031457600080fd5b5061031d610ba6565b60405161032a9190612781565b60405180910390f35b34801561033f57600080fd5b5061035a6004803603810190610355919061267d565b610bb0565b60405161036791906126eb565b60405180910390f35b34801561037c57600080fd5b50610397600480360381019061039291906127ef565b610c62565b6040516103a49190612781565b60405180910390f35b3480156103b957600080fd5b506103c2610d1a565b005b3480156103d057600080fd5b506103d9610da2565b6040516103e691906126eb565b60405180910390f35b3480156103fb57600080fd5b50610404610dcc565b6040516104119190612625565b60405180910390f35b34801561042657600080fd5b5061042f610e5e565b60405161043c9190612781565b60405180910390f35b34801561045157600080fd5b5061046c60048036038101906104679190612848565b610e68565b005b34801561047a57600080fd5b50610495600480360381019061049091906129bd565b610fe9565b005b3480156104a357600080fd5b506104be60048036038101906104b99190612a7e565b6110b0565b005b3480156104cc57600080fd5b506104e760048036038101906104e2919061267d565b611170565b6040516104f49190612625565b60405180910390f35b61051760048036038101906105129190612b4c565b6112c2565b6040516105249190612781565b60405180910390f35b34801561053957600080fd5b506105426114d7565b60405161054f9190612781565b60405180910390f35b34801561056457600080fd5b5061056d6114e1565b60405161057a91906126eb565b60405180910390f35b34801561058f57600080fd5b506105aa60048036038101906105a59190612b95565b611587565b6040516105b79190612571565b60405180910390f35b3480156105cc57600080fd5b506105e760048036038101906105e291906127ef565b61161b565b005b60007f80ac58cd000000000000000000000000000000000000000000000000000000007bffffffffffffffffffffffffffffffffffffffffffffffffffffffff1916827bffffffffffffffffffffffffffffffffffffffffffffffffffffffff191614806106b457507f5b5e139f000000000000000000000000000000000000000000000000000000007bffffffffffffffffffffffffffffffffffffffffffffffffffffffff1916827bffffffffffffffffffffffffffffffffffffffffffffffffffffffff1916145b806106c457506106c382611713565b5b9050919050565b6060600080546106da90612c04565b80601f016020809104026020016040519081016040528092919081815260200182805461070690612c04565b80156107535780601f1061072857610100808354040283529160200191610753565b820191906000526020600020905b81548152906001019060200180831161073657829003601f168201915b5050505050905090565b60006107688261177d565b6107a7576040517f08c379a000000000000000000000000000000000000000000000000000000000815260040161079e90612ca8565b60405180910390fd5b6004600083815260200190815260200160002060009054906101000a900473ffffffffffffffffffffffffffffffffffffffff169050919050565b60006107ed82610bb0565b90508073ffffffffffffffffffffffffffffffffffffffff168373ffffffffffffffffffffffffffffffffffffffff16141561085e576040517f08c379a000000000000000000000000000000000000000000000000000000000815260040161085590612d3a565b60405180910390fd5b8073ffffffffffffffffffffffffffffffffffffffff1661087d6117e9565b73ffffffffffffffffffffffffffffffffffffffff1614806108ac57506108ab816108a66117e9565b611587565b5b6108eb576040517f08c379a00000000000000000000000000000000000000000000000000000000081526004016108e290612dcc565b60405180910390fd5b6108f583836117f1565b505050565b60085481565b61091161090b6117e9565b826118aa565b610950576040517f08c379a000000000000000000000000000000000000000000000000000000000815260040161094790612e5e565b60405180910390fd5b600960009054906101000a900473ffffffffffffffffffffffffffffffffffffffff1673ffffffffffffffffffffffffffffffffffffffff166109916117e9565b73ffffffffffffffffffffffffffffffffffffffff16146109b5576109b4611988565b5b6109c0838383611a0c565b505050565b6109cd6117e9565b73ffffffffffffffffffffffffffffffffffffffff166109eb610da2565b73ffffffffffffffffffffffffffffffffffffffff1614610a41576040517f08c379a0000000000000000000000000000000000000000000000000000000008152600401610a3890612eca565b60405180910390fd5b80600a8190555050565b610a536117e9565b73ffffffffffffffffffffffffffffffffffffffff16610a71610da2565b73ffffffffffffffffffffffffffffffffffffffff1614610ac7576040517f08c379a0000000000000000000000000000000000000000000000000000000008152600401610abe90612eca565b60405180910390fd5b80600b8190555050565b610ae2610adc6117e9565b826118aa565b610b21576040517f08c379a0000000000000000000000000000000000000000000000000000000008152600401610b1890612e5e565b60405180910390fd5b600960009054906101000a900473ffffffffffffffffffffffffffffffffffffffff1673ffffffffffffffffffffffffffffffffffffffff16610b626117e9565b73ffffffffffffffffffffffffffffffffffffffff1614610b8657610b85611988565b5b610ba183838360405180602001604052806000815250611c68565b505050565b6000600854905090565b6000806002600084815260200190815260200160002060009054906101000a900473ffffffffffffffffffffffffffffffffffffffff169050600073ffffffffffffffffffffffffffffffffffffffff168173ffffffffffffffffffffffffffffffffffffffff161415610c59576040517f08c379a0000000000000000000000000000000000000000000000000000000008152600401610c5090612f5c565b60405180910390fd5b80915050919050565b60008073ffffffffffffffffffffffffffffffffffffffff168273ffffffffffffffffffffffffffffffffffffffff161415610cd3576040517f08c379a0000000000000000000000000000000000000000000000000000000008152600401610cca90612fee565b60405180910390fd5b600360008373ffffffffffffffffffffffffffffffffffffffff1673ffffffffffffffffffffffffffffffffffffffff168152602001908152602001600020549050919050565b610d226117e9565b73ffffffffffffffffffffffffffffffffffffffff16610d40610da2565b73ffffffffffffffffffffffffffffffffffffffff1614610d96576040517f08c379a0000000000000000000000000000000000000000000000000000000008152600401610d8d90612eca565b60405180910390fd5b610da06000611cc4565b565b6000600760009054906101000a900473ffffffffffffffffffffffffffffffffffffffff16905090565b606060018054610ddb90612c04565b80601f0160208091040260200160405190810160405280929190818152602001828054610e0790612c04565b8015610e545780601f10610e2957610100808354040283529160200191610e54565b820191906000526020600020905b815481529060010190602001808311610e3757829003601f168201915b5050505050905090565b6000600b54905090565b610e706117e9565b73ffffffffffffffffffffffffffffffffffffffff168273ffffffffffffffffffffffffffffffffffffffff161415610ede576040517f08c379a0000000000000000000000000000000000000000000000000000000008152600401610ed59061305a565b60405180910390fd5b8060056000610eeb6117e9565b73ffffffffffffffffffffffffffffffffffffffff1673ffffffffffffffffffffffffffffffffffffffff16815260200190815260200160002060008473ffffffffffffffffffffffffffffffffffffffff1673ffffffffffffffffffffffffffffffffffffffff16815260200190815260200160002060006101000a81548160ff0219169083151502179055508173ffffffffffffffffffffffffffffffffffffffff16610f986117e9565b73ffffffffffffffffffffffffffffffffffffffff167f17307eab39ab6107e8899845ad3d59bd9653f200f220920489ca2b5937696c3183604051610fdd9190612571565b60405180910390a35050565b610ffa610ff46117e9565b836118aa565b611039576040517f08c379a000000000000000000000000000000000000000000000000000000000815260040161103090612e5e565b60405180910390fd5b600960009054906101000a900473ffffffffffffffffffffffffffffffffffffffff1673ffffffffffffffffffffffffffffffffffffffff1661107a6117e9565b73ffffffffffffffffffffffffffffffffffffffff161461109e5761109d611988565b5b6110aa84848484611c68565b50505050565b6110b86117e9565b73ffffffffffffffffffffffffffffffffffffffff166110d6610da2565b73ffffffffffffffffffffffffffffffffffffffff161461112c576040517f08c379a000000000000000000000000000000000000000000000000000000000815260040161112390612eca565b60405180910390fd5b80600960006101000a81548173ffffffffffffffffffffffffffffffffffffffff021916908373ffffffffffffffffffffffffffffffffffffffff16021790555050565b606061117b8261177d565b6111ba576040517f08c379a00000000000000000000000000000000000000000000000000000000081526004016111b1906130ec565b60405180910390fd5b60006006600084815260200190815260200160002080546111da90612c04565b80601f016020809104026020016040519081016040528092919081815260200182805461120690612c04565b80156112535780601f1061122857610100808354040283529160200191611253565b820191906000526020600020905b81548152906001019060200180831161123657829003601f168201915b505050505090506000611264611d8a565b905060008151141561127a5781925050506112bd565b6000825111156112af578082604051602001611297929190613148565b604051602081830303815290604052925050506112bd565b6112b884611da1565b925050505b919050565b6000600960009054906101000a900473ffffffffffffffffffffffffffffffffffffffff1673ffffffffffffffffffffffffffffffffffffffff166113056117e9565b73ffffffffffffffffffffffffffffffffffffffff161461136657600a54341015611365576040517f08c379a000000000000000000000000000000000000000000000000000000000815260040161135c906131de565b60405180910390fd5b5b61030960085411156113ad576040517f08c379a00000000000000000000000000000000000000000000000000000000081526004016113a49061324a565b60405180910390fd5b6113b5610da2565b73ffffffffffffffffffffffffffffffffffffffff163373ffffffffffffffffffffffffffffffffffffffff16146114335760016113f233610c62565b10611432576040517f08c379a0000000000000000000000000000000000000000000000000000000008152600401611429906132b6565b60405180910390fd5b5b600960009054906101000a900473ffffffffffffffffffffffffffffffffffffffff1673ffffffffffffffffffffffffffffffffffffffff166108fc349081150290604051600060405180830381858888f1935050505015801561149b573d6000803e3d6000fd5b50600060085490506114ad3382611e48565b6114b78184611e66565b6114cd6001600854611eda90919063ffffffff16565b5080915050919050565b6000600a54905090565b60006114eb6117e9565b73ffffffffffffffffffffffffffffffffffffffff16611509610da2565b73ffffffffffffffffffffffffffffffffffffffff161461155f576040517f08c379a000000000000000000000000000000000000000000000000000000000815260040161155690612eca565b60405180910390fd5b600960009054906101000a900473ffffffffffffffffffffffffffffffffffffffff16905090565b6000600560008473ffffffffffffffffffffffffffffffffffffffff1673ffffffffffffffffffffffffffffffffffffffff16815260200190815260200160002060008373ffffffffffffffffffffffffffffffffffffffff1673ffffffffffffffffffffffffffffffffffffffff16815260200190815260200160002060009054906101000a900460ff16905092915050565b6116236117e9565b73ffffffffffffffffffffffffffffffffffffffff16611641610da2565b73ffffffffffffffffffffffffffffffffffffffff1614611697576040517f08c379a000000000000000000000000000000000000000000000000000000000815260040161168e90612eca565b60405180910390fd5b600073ffffffffffffffffffffffffffffffffffffffff168173ffffffffffffffffffffffffffffffffffffffff161415611707576040517f08c379a00000000000000000000000000000000000000000000000000000000081526004016116fe90613348565b60405180910390fd5b61171081611cc4565b50565b60007f01ffc9a7000000000000000000000000000000000000000000000000000000007bffffffffffffffffffffffffffffffffffffffffffffffffffffffff1916827bffffffffffffffffffffffffffffffffffffffffffffffffffffffff1916149050919050565b60008073ffffffffffffffffffffffffffffffffffffffff166002600084815260200190815260200160002060009054906101000a900473ffffffffffffffffffffffffffffffffffffffff1673ffffffffffffffffffffffffffffffffffffffff1614159050919050565b600033905090565b816004600083815260200190815260200160002060006101000a81548173ffffffffffffffffffffffffffffffffffffffff021916908373ffffffffffffffffffffffffffffffffffffffff160217905550808273ffffffffffffffffffffffffffffffffffffffff1661186483610bb0565b73ffffffffffffffffffffffffffffffffffffffff167f8c5be1e5ebec7d5bd14f71427d1e84f3dd0314c0f7b2291e5b200ac8c7c3b92560405160405180910390a45050565b60006118b58261177d565b6118f4576040517f08c379a00000000000000000000000000000000000000000000000000000000081526004016118eb906133da565b60405180910390fd5b60006118ff83610bb0565b90508073ffffffffffffffffffffffffffffffffffffffff168473ffffffffffffffffffffffffffffffffffffffff16148061196e57508373ffffffffffffffffffffffffffffffffffffffff166119568461075d565b73ffffffffffffffffffffffffffffffffffffffff16145b8061197f575061197e8185611587565b5b91505092915050565b600960009054906101000a900473ffffffffffffffffffffffffffffffffffffffff1673ffffffffffffffffffffffffffffffffffffffff166108fc6064600b546119d39190613458565b346119de9190613489565b9081150290604051600060405180830381858888f19350505050158015611a09573d6000803e3d6000fd5b50565b8273ffffffffffffffffffffffffffffffffffffffff16611a2c82610bb0565b73ffffffffffffffffffffffffffffffffffffffff1614611a82576040517f08c379a0000000000000000000000000000000000000000000000000000000008152600401611a7990613555565b60405180910390fd5b600073ffffffffffffffffffffffffffffffffffffffff168273ffffffffffffffffffffffffffffffffffffffff161415611af2576040517f08c379a0000000000000000000000000000000000000000000000000000000008152600401611ae9906135e7565b60405180910390fd5b611afd838383611ef0565b611b086000826117f1565b6001600360008573ffffffffffffffffffffffffffffffffffffffff1673ffffffffffffffffffffffffffffffffffffffff1681526020019081526020016000206000828254611b589190613607565b925050819055506001600360008473ffffffffffffffffffffffffffffffffffffffff1673ffffffffffffffffffffffffffffffffffffffff1681526020019081526020016000206000828254611baf919061363b565b92505081905550816002600083815260200190815260200160002060006101000a81548173ffffffffffffffffffffffffffffffffffffffff021916908373ffffffffffffffffffffffffffffffffffffffff160217905550808273ffffffffffffffffffffffffffffffffffffffff168473ffffffffffffffffffffffffffffffffffffffff167fddf252ad1be2c89b69c2b068fc378daa952ba7f163c4a11628f55a4df523b3ef60405160405180910390a4505050565b611c73848484611a0c565b611c7f84848484611ef5565b611cbe576040517f08c379a0000000000000000000000000000000000000000000000000000000008152600401611cb590613703565b60405180910390fd5b50505050565b6000600760009054906101000a900473ffffffffffffffffffffffffffffffffffffffff16905081600760006101000a81548173ffffffffffffffffffffffffffffffffffffffff021916908373ffffffffffffffffffffffffffffffffffffffff1602179055508173ffffffffffffffffffffffffffffffffffffffff168173ffffffffffffffffffffffffffffffffffffffff167f8be0079c531659141344cd1fd0a4f28419497f9722a3daafe3b4186f6b6457e060405160405180910390a35050565b606060405180602001604052806000815250905090565b6060611dac8261177d565b611deb576040517f08c379a0000000000000000000000000000000000000000000000000000000008152600401611de290613795565b60405180910390fd5b6000611df5611d8a565b90506000815111611e155760405180602001604052806000815250611e40565b80611e1f8461207d565b604051602001611e30929190613148565b6040516020818303038152906040525b915050919050565b611e628282604051806020016040528060008152506121de565b5050565b611e6f8261177d565b611eae576040517f08c379a0000000000000000000000000000000000000000000000000000000008152600401611ea590613827565b60405180910390fd5b80600660008481526020019081526020016000209080519060200190611ed592919061241a565b505050565b60008183611ee8919061363b565b905092915050565b505050565b6000611f168473ffffffffffffffffffffffffffffffffffffffff16612239565b15612070578373ffffffffffffffffffffffffffffffffffffffff1663150b7a02611f3f6117e9565b8786866040518563ffffffff1660e01b8152600401611f61949392919061389c565b6020604051808303816000875af1925050508015611f9d57506040513d601f19601f82011682018060405250810190611f9a91906138fd565b60015b612020573d8060008114611fcd576040519150601f19603f3d011682016040523d82523d6000602084013e611fd2565b606091505b50600081511415612018576040517f08c379a000000000000000000000000000000000000000000000000000000000815260040161200f90613703565b60405180910390fd5b805181602001fd5b63150b7a0260e01b7bffffffffffffffffffffffffffffffffffffffffffffffffffffffff1916817bffffffffffffffffffffffffffffffffffffffffffffffffffffffff191614915050612075565b600190505b949350505050565b606060008214156120c5576040518060400160405280600181526020017f300000000000000000000000000000000000000000000000000000000000000081525090506121d9565b600082905060005b600082146120f75780806120e09061392a565b915050600a826120f09190613458565b91506120cd565b60008167ffffffffffffffff81111561211357612112612892565b5b6040519080825280601f01601f1916602001820160405280156121455781602001600182028036833780820191505090505b5090505b600085146121d25760018261215e9190613607565b9150600a8561216d9190613973565b6030612179919061363b565b60f81b81838151811061218f5761218e6139a4565b5b60200101907effffffffffffffffffffffffffffffffffffffffffffffffffffffffffffff1916908160001a905350600a856121cb9190613458565b9450612149565b8093505050505b919050565b6121e8838361224c565b6121f56000848484611ef5565b612234576040517f08c379a000000000000000000000000000000000000000000000000000000000815260040161222b90613703565b60405180910390fd5b505050565b600080823b905060008111915050919050565b600073ffffffffffffffffffffffffffffffffffffffff168273ffffffffffffffffffffffffffffffffffffffff1614156122bc576040517f08c379a00000000000000000000000000000000000000000000000000000000081526004016122b390613a1f565b60405180910390fd5b6122c58161177d565b15612305576040517f08c379a00000000000000000000000000000000000000000000000000000000081526004016122fc90613a8b565b60405180910390fd5b61231160008383611ef0565b6001600360008473ffffffffffffffffffffffffffffffffffffffff1673ffffffffffffffffffffffffffffffffffffffff1681526020019081526020016000206000828254612361919061363b565b92505081905550816002600083815260200190815260200160002060006101000a81548173ffffffffffffffffffffffffffffffffffffffff021916908373ffffffffffffffffffffffffffffffffffffffff160217905550808273ffffffffffffffffffffffffffffffffffffffff16600073ffffffffffffffffffffffffffffffffffffffff167fddf252ad1be2c89b69c2b068fc378daa952ba7f163c4a11628f55a4df523b3ef60405160405180910390a45050565b82805461242690612c04565b90600052602060002090601f016020900481019282612448576000855561248f565b82601f1061246157805160ff191683800117855561248f565b8280016001018555821561248f579182015b8281111561248e578251825591602001919060010190612473565b5b50905061249c91906124a0565b5090565b5b808211156124b95760008160009055506001016124a1565b5090565b6000604051905090565b600080fd5b600080fd5b60007fffffffff0000000000000000000000000000000000000000000000000000000082169050919050565b612506816124d1565b811461251157600080fd5b50565b600081359050612523816124fd565b92915050565b60006020828403121561253f5761253e6124c7565b5b600061254d84828501612514565b91505092915050565b60008115159050919050565b61256b81612556565b82525050565b60006020820190506125866000830184612562565b92915050565b600081519050919050565b600082825260208201905092915050565b60005b838110156125c65780820151818401526020810190506125ab565b838111156125d5576000848401525b50505050565b6000601f19601f8301169050919050565b60006125f78261258c565b6126018185612597565b93506126118185602086016125a8565b61261a816125db565b840191505092915050565b6000602082019050818103600083015261263f81846125ec565b905092915050565b6000819050919050565b61265a81612647565b811461266557600080fd5b50565b60008135905061267781612651565b92915050565b600060208284031215612693576126926124c7565b5b60006126a184828501612668565b91505092915050565b600073ffffffffffffffffffffffffffffffffffffffff82169050919050565b60006126d5826126aa565b9050919050565b6126e5816126ca565b82525050565b600060208201905061270060008301846126dc565b92915050565b61270f816126ca565b811461271a57600080fd5b50565b60008135905061272c81612706565b92915050565b60008060408385031215612749576127486124c7565b5b60006127578582860161271d565b925050602061276885828601612668565b9150509250929050565b61277b81612647565b82525050565b60006020820190506127966000830184612772565b92915050565b6000806000606084860312156127b5576127b46124c7565b5b60006127c38682870161271d565b93505060206127d48682870161271d565b92505060406127e586828701612668565b9150509250925092565b600060208284031215612805576128046124c7565b5b60006128138482850161271d565b91505092915050565b61282581612556565b811461283057600080fd5b50565b6000813590506128428161281c565b92915050565b6000806040838503121561285f5761285e6124c7565b5b600061286d8582860161271d565b925050602061287e85828601612833565b9150509250929050565b600080fd5b600080fd5b7f4e487b7100000000000000000000000000000000000000000000000000000000600052604160045260246000fd5b6128ca826125db565b810181811067ffffffffffffffff821117156128e9576128e8612892565b5b80604052505050565b60006128fc6124bd565b905061290882826128c1565b919050565b600067ffffffffffffffff82111561292857612927612892565b5b612931826125db565b9050602081019050919050565b82818337600083830152505050565b600061296061295b8461290d565b6128f2565b90508281526020810184848401111561297c5761297b61288d565b5b61298784828561293e565b509392505050565b600082601f8301126129a4576129a3612888565b5b81356129b484826020860161294d565b91505092915050565b600080600080608085870312156129d7576129d66124c7565b5b60006129e58782880161271d565b94505060206129f68782880161271d565b9350506040612a0787828801612668565b925050606085013567ffffffffffffffff811115612a2857612a276124cc565b5b612a348782880161298f565b91505092959194509250565b6000612a4b826126aa565b9050919050565b612a5b81612a40565b8114612a6657600080fd5b50565b600081359050612a7881612a52565b92915050565b600060208284031215612a9457612a936124c7565b5b6000612aa284828501612a69565b91505092915050565b600067ffffffffffffffff821115612ac657612ac5612892565b5b612acf826125db565b9050602081019050919050565b6000612aef612aea84612aab565b6128f2565b905082815260208101848484011115612b0b57612b0a61288d565b5b612b1684828561293e565b509392505050565b600082601f830112612b3357612b32612888565b5b8135612b43848260208601612adc565b91505092915050565b600060208284031215612b6257612b616124c7565b5b600082013567ffffffffffffffff811115612b8057612b7f6124cc565b5b612b8c84828501612b1e565b91505092915050565b60008060408385031215612bac57612bab6124c7565b5b6000612bba8582860161271d565b9250506020612bcb8582860161271d565b9150509250929050565b7f4e487b7100000000000000000000000000000000000000000000000000000000600052602260045260246000fd5b60006002820490506001821680612c1c57607f821691505b60208210811415612c3057612c2f612bd5565b5b50919050565b7f4552433732313a20617070726f76656420717565727920666f72206e6f6e657860008201527f697374656e7420746f6b656e0000000000000000000000000000000000000000602082015250565b6000612c92602c83612597565b9150612c9d82612c36565b604082019050919050565b60006020820190508181036000830152612cc181612c85565b9050919050565b7f4552433732313a20617070726f76616c20746f2063757272656e74206f776e6560008201527f7200000000000000000000000000000000000000000000000000000000000000602082015250565b6000612d24602183612597565b9150612d2f82612cc8565b604082019050919050565b60006020820190508181036000830152612d5381612d17565b9050919050565b7f4552433732313a20617070726f76652063616c6c6572206973206e6f74206f7760008201527f6e6572206e6f7220617070726f76656420666f7220616c6c0000000000000000602082015250565b6000612db6603883612597565b9150612dc182612d5a565b604082019050919050565b60006020820190508181036000830152612de581612da9565b9050919050565b7f4552433732313a207472616e736665722063616c6c6572206973206e6f74206f60008201527f776e6572206f7220617070726f76656400000000000000000000000000000000602082015250565b6000612e48603083612597565b9150612e5382612dec565b604082019050919050565b60006020820190508181036000830152612e7781612e3b565b9050919050565b7f4f776e61626c653a2063616c6c6572206973206e6f7420746865206f776e6572600082015250565b6000612eb4602083612597565b9150612ebf82612e7e565b602082019050919050565b60006020820190508181036000830152612ee381612ea7565b9050919050565b7f4552433732313a206f776e657220717565727920666f72206e6f6e657869737460008201527f656e7420746f6b656e0000000000000000000000000000000000000000000000602082015250565b6000612f46602983612597565b9150612f5182612eea565b604082019050919050565b60006020820190508181036000830152612f7581612f39565b9050919050565b7f4552433732313a2062616c616e636520717565727920666f7220746865207a6560008201527f726f206164647265737300000000000000000000000000000000000000000000602082015250565b6000612fd8602a83612597565b9150612fe382612f7c565b604082019050919050565b6000602082019050818103600083015261300781612fcb565b9050919050565b7f4552433732313a20617070726f766520746f2063616c6c657200000000000000600082015250565b6000613044601983612597565b915061304f8261300e565b602082019050919050565b6000602082019050818103600083015261307381613037565b9050919050565b7f45524337323155524953746f726167653a2055524920717565727920666f722060008201527f6e6f6e6578697374656e7420746f6b656e000000000000000000000000000000602082015250565b60006130d6603183612597565b91506130e18261307a565b604082019050919050565b60006020820190508181036000830152613105816130c9565b9050919050565b600081905092915050565b60006131228261258c565b61312c818561310c565b935061313c8185602086016125a8565b80840191505092915050565b60006131548285613117565b91506131608284613117565b91508190509392505050565b7f4d696e742066656520776173206e6f7420696e636c756465642077697468206360008201527f616c6c0000000000000000000000000000000000000000000000000000000000602082015250565b60006131c8602383612597565b91506131d38261316c565b604082019050919050565b600060208201905081810360008301526131f7816131bb565b9050919050565b7f416c6c2037373720746f6b656e732068617665206265656e206d696e74656421600082015250565b6000613234602083612597565b915061323f826131fe565b602082019050919050565b6000602082019050818103600083015261326381613227565b9050919050565b7f4f6e6c79206f6e65205065722041646472657373000000000000000000000000600082015250565b60006132a0601483612597565b91506132ab8261326a565b602082019050919050565b600060208201905081810360008301526132cf81613293565b9050919050565b7f4f776e61626c653a206e6577206f776e657220697320746865207a65726f206160008201527f6464726573730000000000000000000000000000000000000000000000000000602082015250565b6000613332602683612597565b915061333d826132d6565b604082019050919050565b6000602082019050818103600083015261336181613325565b9050919050565b7f4552433732313a206f70657261746f7220717565727920666f72206e6f6e657860008201527f697374656e7420746f6b656e0000000000000000000000000000000000000000602082015250565b60006133c4602c83612597565b91506133cf82613368565b604082019050919050565b600060208201905081810360008301526133f3816133b7565b9050919050565b7f4e487b7100000000000000000000000000000000000000000000000000000000600052601260045260246000fd5b7f4e487b7100000000000000000000000000000000000000000000000000000000600052601160045260246000fd5b600061346382612647565b915061346e83612647565b92508261347e5761347d6133fa565b5b828204905092915050565b600061349482612647565b915061349f83612647565b9250817fffffffffffffffffffffffffffffffffffffffffffffffffffffffffffffffff04831182151516156134d8576134d7613429565b5b828202905092915050565b7f4552433732313a207472616e73666572206f6620746f6b656e2074686174206960008201527f73206e6f74206f776e0000000000000000000000000000000000000000000000602082015250565b600061353f602983612597565b915061354a826134e3565b604082019050919050565b6000602082019050818103600083015261356e81613532565b9050919050565b7f4552433732313a207472616e7366657220746f20746865207a65726f2061646460008201527f7265737300000000000000000000000000000000000000000000000000000000602082015250565b60006135d1602483612597565b91506135dc82613575565b604082019050919050565b60006020820190508181036000830152613600816135c4565b9050919050565b600061361282612647565b915061361d83612647565b9250828210156136305761362f613429565b5b828203905092915050565b600061364682612647565b915061365183612647565b9250827fffffffffffffffffffffffffffffffffffffffffffffffffffffffffffffffff0382111561368657613685613429565b5b828201905092915050565b7f4552433732313a207472616e7366657220746f206e6f6e20455243373231526560008201527f63656976657220696d706c656d656e7465720000000000000000000000000000602082015250565b60006136ed603283612597565b91506136f882613691565b604082019050919050565b6000602082019050818103600083015261371c816136e0565b9050919050565b7f4552433732314d657461646174613a2055524920717565727920666f72206e6f60008201527f6e6578697374656e7420746f6b656e0000000000000000000000000000000000602082015250565b600061377f602f83612597565b915061378a82613723565b604082019050919050565b600060208201905081810360008301526137ae81613772565b9050919050565b7f45524337323155524953746f726167653a2055524920736574206f66206e6f6e60008201527f6578697374656e7420746f6b656e000000000000000000000000000000000000602082015250565b6000613811602e83612597565b915061381c826137b5565b604082019050919050565b6000602082019050818103600083015261384081613804565b9050919050565b600081519050919050565b600082825260208201905092915050565b600061386e82613847565b6138788185613852565b93506138888185602086016125a8565b613891816125db565b840191505092915050565b60006080820190506138b160008301876126dc565b6138be60208301866126dc565b6138cb6040830185612772565b81810360608301526138dd8184613863565b905095945050505050565b6000815190506138f7816124fd565b92915050565b600060208284031215613913576139126124c7565b5b6000613921848285016138e8565b91505092915050565b600061393582612647565b91507fffffffffffffffffffffffffffffffffffffffffffffffffffffffffffffffff82141561396857613967613429565b5b600182019050919050565b600061397e82612647565b915061398983612647565b925082613999576139986133fa565b5b828206905092915050565b7f4e487b7100000000000000000000000000000000000000000000000000000000600052603260045260246000fd5b7f4552433732313a206d696e7420746f20746865207a65726f2061646472657373600082015250565b6000613a09602083612597565b9150613a14826139d3565b602082019050919050565b60006020820190508181036000830152613a38816139fc565b9050919050565b7f4552433732313a20746f6b656e20616c7265616479206d696e74656400000000600082015250565b6000613a75601c83612597565b9150613a8082613a3f565b602082019050919050565b60006020820190508181036000830152613aa481613a68565b905091905056fea2646970667358221220528b42f5162030ca0fdfcfdd14bac57559bdd7258ec434218a0f11cfe63bf86064736f6c634300080a0033",
  "immutableReferences": {},
  "source": "pragma solidity ^0.8.10;\r\n\r\nimport \"@openzeppelin/contracts/token/ERC721/ERC721.sol\";\r\nimport \"@openzeppelin/contracts/token/ERC721/extensions/ERC721URIStorage.sol\";\r\nimport \"@openzeppelin/contracts/utils/math/SafeMath.sol\";\r\nimport \"@openzeppelin/contracts/access/Ownable.sol\";\r\n\r\ncontract MuseumGATicket is ERC721URIStorage, Ownable {\r\n    using SafeMath for uint256;\r\n\r\n    uint256 public tokenId;\r\n    address payable private _artist;\r\n    uint256 private _mintFee;\r\n    uint256 private _royaltyFee;\r\n\r\n    constructor () public ERC721 (\"MuseumGATicket\", \"Cr3w\") Ownable(){\r\n        tokenId = 1;\r\n        _artist = payable(msg.sender);\r\n        _mintFee = .001 ether;\r\n        _royaltyFee = 1;\r\n    }\r\n\r\n    function GetRoyaltyFee() external view returns(uint){\r\n        return _royaltyFee;\r\n    }\r\n\r\n    function GetMintFee() external view returns(uint){\r\n        return _mintFee;\r\n    }\r\n\r\n    function GetCurrentTokenId() external view returns(uint){\r\n        return tokenId;\r\n    }\r\n\r\n    function GetArtist() external view onlyOwner() returns(address){\r\n        return _artist;\r\n    }\r\n\r\n    function SetArtistAddress(address payable _artistAddress) external onlyOwner() {\r\n        _artist = _artistAddress;\r\n    }\r\n\r\n    function SetMintFee(uint256 _feeAmount) external onlyOwner() {\r\n        _mintFee = _feeAmount;\r\n    }\r\n\r\n    function SetRoyaltyFee(uint _feePercentage) external onlyOwner() {\r\n        _royaltyFee = _feePercentage;\r\n    }\r\n\r\n    function transferFrom(address from, address to, uint256 tokenId) public override {\r\n        require(_isApprovedOrOwner(_msgSender(),tokenId), 'ERC721: transfer caller is not owner or approved');\r\n\r\n        if(_msgSender() != _artist){\r\n            _payRoyaltyFee();\r\n        }\r\n\r\n        _transfer(from,to,tokenId);\r\n    }\r\n\r\n    function safeTransferFrom(address from, address to, uint256 tokenId) public override {\r\n        require(_isApprovedOrOwner(_msgSender(),tokenId), 'ERC721: transfer caller is not owner or approved');\r\n\r\n        if(_msgSender() != _artist){\r\n            _payRoyaltyFee();\r\n        }\r\n\r\n        _safeTransfer(from, to, tokenId, '');\r\n    }\r\n\r\n    function safeTransferFrom(address from, address to, uint256 tokenId, bytes memory _data) public override {\r\n        require(_isApprovedOrOwner(_msgSender(),tokenId), 'ERC721: transfer caller is not owner or approved');\r\n\r\n        if(_msgSender() != _artist){\r\n            _payRoyaltyFee();\r\n        }\r\n\r\n        _safeTransfer(from, to, tokenId, _data);\r\n    }\r\n\r\n    function createNFT(string memory tokenURI) public payable hasMintFee() returns (uint256) {\r\n        require(tokenId <= 777, 'All 777 tokens have been minted!');\r\n        if(msg.sender != owner()){\r\n            require(balanceOf(msg.sender) < 1, 'Only one Per Address');\r\n        }\r\n        _artist.transfer(msg.value);\r\n\r\n        uint256 newNFTTokenId = tokenId;\r\n\r\n        _safeMint(msg.sender,newNFTTokenId);\r\n\r\n        _setTokenURI(newNFTTokenId, tokenURI);\r\n\r\n        tokenId.add(1);\r\n\r\n        return newNFTTokenId;\r\n    }\r\n\r\n    modifier hasMintFee() {\r\n        if(_msgSender() != _artist){\r\n            require(msg.value >= _mintFee, 'Mint fee was not included with call');\r\n        }\r\n        _;\r\n    }\r\n\r\n    function _payRoyaltyFee() internal {\r\n        _artist.transfer(msg.value * (_royaltyFee/100));\r\n    }\r\n}",
  "sourcePath": "C:\\Users\\HP\\OneDrive\\Documents\\Programing\\NFT Creator\\MuseumTicketNFT\\contracts\\MuseumGATicketContract.sol",
  "compiler": {
    "name": "solc",
    "version": "0.8.10+commit.fc410830.Emscripten.clang"
  },
  "schemaVersion": "3.4.3",
  "updatedAt": "2021-12-07T22:15:41.924Z",
  "networkType": "ethereum",
  "devdoc": {
    "kind": "dev",
    "methods": {
      "approve(address,uint256)": {
        "details": "See {IERC721-approve}."
      },
      "balanceOf(address)": {
        "details": "See {IERC721-balanceOf}."
      },
      "getApproved(uint256)": {
        "details": "See {IERC721-getApproved}."
      },
      "isApprovedForAll(address,address)": {
        "details": "See {IERC721-isApprovedForAll}."
      },
      "name()": {
        "details": "See {IERC721Metadata-name}."
      },
      "owner()": {
        "details": "Returns the address of the current owner."
      },
      "ownerOf(uint256)": {
        "details": "See {IERC721-ownerOf}."
      },
      "renounceOwnership()": {
        "details": "Leaves the contract without owner. It will not be possible to call `onlyOwner` functions anymore. Can only be called by the current owner. NOTE: Renouncing ownership will leave the contract without an owner, thereby removing any functionality that is only available to the owner."
      },
      "safeTransferFrom(address,address,uint256)": {
        "details": "See {IERC721-safeTransferFrom}."
      },
      "safeTransferFrom(address,address,uint256,bytes)": {
        "details": "See {IERC721-safeTransferFrom}."
      },
      "setApprovalForAll(address,bool)": {
        "details": "See {IERC721-setApprovalForAll}."
      },
      "supportsInterface(bytes4)": {
        "details": "See {IERC165-supportsInterface}."
      },
      "symbol()": {
        "details": "See {IERC721Metadata-symbol}."
      },
      "tokenURI(uint256)": {
        "details": "See {IERC721Metadata-tokenURI}."
      },
      "transferFrom(address,address,uint256)": {
        "details": "See {IERC721-transferFrom}."
      },
      "transferOwnership(address)": {
        "details": "Transfers ownership of the contract to a new account (`newOwner`). Can only be called by the current owner."
      }
    },
    "version": 1
  },
  "userdoc": {
    "kind": "user",
    "methods": {},
    "version": 1
  }
}